:020000040800F2
:100000000028002021150008B1140008B7140008CA
:10001000BD140008C3140008C91400080000000043
:10002000000000000000000000000000CF140008E5
:10003000DB14000800000000E7140008F3140008B7
:100040006915000869150008691500086915000898
:100050006915000869150008691500086915000888
:100060006915000869150008691500086915000878
:100070006915000869150008691500086915000868
:100080006915000869150008691500086915000858
:100090006915000869150008691500086915000848
:1000A0006915000869150008691500086915000838
:1000B0000115000869150008000000006915000816
:1000C0006915000800000000000000006915000824
:1000D0000000000069150008691500080000000014
:1000E000691500086915000869150008000000007E
:1000F0000000000000000000000000000000000000
:0C01000000000000000000005FF808F1A3
:10010C0010B5054C237833B9044B13B10448AFF345
:10011C0000800123237010BD380000200000000077
:10012C00C02B000808B5034B1BB103490348AFF3C0
:10013C00008008BD000000003C000020C02B00081F
:10014C0080B582B000AF78607B68012B05D10122AD
:10015C00E021084801F005FD08E07B68002B05D183
:10016C0001224FF4E061034801F0FBFC00BF0837AB
:10017C00BD4680BD0008014080B500AF012243F6AA
:10018C00FF71024801F0EDFC00BF80BD000C014086
:10019C0080B500AF01224FF4F041024801F0E1FCC0
:1001AC0000BF80BD0008014080B500AF01224FF4B4
:1001BC00FC61024801F0D5FC00BF80BD0008014085
:1001CC0080B582B000AF786039607B68002B1ED19F
:1001DC003B68072B15D03B68072B37DC3B68052B9E
:1001EC0003D03B68062B06D030E04FF480711C48DE
:1001FC0001F0CFFC2FE04FF40071194801F0C9FC5D
:10020C0029E04FF48061164801F0C3FC23E07B68C1
:10021C00012B1DD13B68072B13D03B68072B19DC36
:10022C003B68052B03D03B68062B05D012E0202140
:10023C000B4801F0AEFC0EE04021094801F0A9FC8E
:10024C0009E08021064801F0A4FC04E000BF02E0B4
:10025C0000BF00E000BF00BF0837BD4680BD00BF37
:10026C000008014080B582B000AF786039607B68CF
:10027C00002B46D13B68072B30D03B68072B00F393
:10028C00CA803B68052B03D03B68062B13D0C2E019
:10029C0000224FF48071654801F063FC01224FF499
:1002AC000071624801F05DFC01224FF480615F48EF
:1002BC0001F057FCB6E001224FF480715B4801F06D
:1002CC0050FC00224FF40071584801F04AFC012206
:1002DC004FF48061554801F044FCA3E001224FF437
:1002EC008071524801F03DFC01224FF400714F48DF
:1002FC0001F037FC00224FF480614C4801F031FCD6
:10030C0090E07B68012B3DD13B68072B2AD03B68E2
:10031C00072B00F382803B68052B03D03B68062B30
:10032C0010D07AE000222021404801F01AFC012272
:10033C0040213E4801F015FC012280213B4801F090
:10034C0010FC6FE001222021384801F00AFC002249
:10035C004021364801F005FC01228021334801F090
:10036C0000FC5FE001222021304801F0FAFB012261
:10037C0040212E4801F0F5FB002280212B4801F092
:10038C00F0FB4FE07B68022B49D13B68072B2FD049
:10039C003B68072B45DC3B68052B03D03B68062BE1
:1003AC0013D03EE000224FF49071204801F0D9FBAD
:1003BC0001224FF410711D4801F0D3FB01224FF4C0
:1003CC0090611A4801F0CDFB2CE001224FF49071A2
:1003DC00164801F0C6FB00224FF41071134801F0CF
:1003EC00C0FB01224FF49061104801F0BAFB19E0F8
:1003FC0001224FF490710D4801F0B3FB01224FF430
:10040C0010710A4801F0ADFB00224FF490610748CF
:10041C0001F0A7FB06E000BF04E000BF02E000BF54
:10042C0000E000BF00BF0837BD4680BD000801409A
:10043C0080B582B000AF78607B68032B56D801A2E0
:10044C0052F823F06104000887040008AD0400088A
:10045C00D304000801224FF4E041274801F081FB4E
:10046C00264B1B6819460B2000F04AF800224FF46B
:10047C000061214801F075FB39E001224FF4D041B5
:10048C001D4801F06EFB1D4B5B6819460B2000F0FC
:10049C0037F800224FF48051174801F062FB26E038
:1004AC0001224FF4B041144801F05BFB134B9B68E5
:1004BC0019460A2000F024F800224FF400510E488F
:1004CC0001F04FFB13E001224FF460510A4801F098
:1004DC0048FB0A4BDB6819460A2000F011F8002291
:1004EC004FF48041044801F03CFB00E000BF00BF2A
:1004FC000837BD4680BD00BF0008014054000020F5
:10050C0080B582B000AF786039607B680B2B6ED100
:10051C003B68002B07D1FFF72FFE00223F217348C9
:10052C0001F01FFBDDE03B68012B07D1FFF724FE38
:10053C00002206216D4801F014FBD2E03B68022B2F
:10054C0007D1FFF719FE00225B21684801F009FB77
:10055C00C7E03B68032B07D1FFF70EFE00224F21AB
:10056C00624801F0FEFABCE03B68042B07D1FFF7B0
:10057C0003FE002266215D4801F0F3FAB1E03B680E
:10058C00052B07D1FFF7F8FD00226D21574801F02C
:10059C00E8FAA6E03B68062B07D1FFF7EDFD002239
:1005AC007D21524801F0DDFA9BE03B68072B07D117
:1005BC00FFF7E2FD002207214C4801F0D2FA90E04F
:1005CC003B68082B07D1FFF7D7FD00227F21474856
:1005DC0001F0C7FA85E03B68092B40F08280FFF7F9
:1005EC00CBFD00226F21414801F0BBFA79E07B681A
:1005FC000A2B76D13B68002B08D1FFF7BDFD0022FA
:10060C004FF4FC51394801F0ACFA6AE03B68012B1D
:10061C0008D1FFF7B1FD00224FF44071334801F0CF
:10062C00A0FA5EE03B68022B08D1FFF7A5FD002283
:10063C004FF436512D4801F094FA52E03B68032BED
:10064C0008D1FFF799FD00224FF41E51274801F005
:10065C0088FA46E03B68042B08D1FFF78DFD002299
:10066C004FF44C51214801F07CFA3AE03B68052BE1
:10067C0008D1FFF781FD00224FF45A511B4801F0BD
:10068C0070FA2EE03B68062B08D1FFF775FD0022AF
:10069C004FF47A51154801F064FA22E03B68072BBD
:1006AC0008D1FFF769FD00224FF460710F4801F08B
:1006BC0058FA16E03B68082B08D1FFF75DFD0022C5
:1006CC004FF47E51094801F04CFA0AE03B68092BC3
:1006DC0007D1FFF751FD00224FF45E51034801F0A2
:1006EC0040FA00BF0837BD4680BD00BF000C01407A
:1006FC0080B483B000AF786039607B68184A82FBA5
:10070C0003129210DB17D31A164A13607968144B34
:10071C0083FB01239A10CB17D21A13469B00134468
:10072C005B00CA1A0F4B5A603B680D4A82FB0312DE
:10073C009210DB17D31A0B4A93603968084B83FB72
:10074C0001239A10CB17D21A13469B0013445B005B
:10075C00CA1A044BDA6000BF0C37BD4680BC704728
:10076C00676666665400002080B500AF9A4B1B6824
:10077C00033B042B00F2268201A252F823F000BFA7
:10078C00A107000807080008AF080008110A0008B4
:10079C00F70A0008914B1B68914A82FB03129211D5
:1007AC00DB17D31A8F4A13608F4B1B688C4A82FB62
:1007BC0003129211DB17D31A8C4A13608C4B1B68F3
:1007CC00874A82FB03129211DB17D31A894A1360F2
:1007DC00FFF7D2FCFFF7DCFC0020FFF7B1FC012097
:1007EC00FFF7AEFC002000F0CBFB0346002B00F023
:1007FC00EB81794B04221A60E6E17F4B00221A60F0
:10080C00754B05221A600020FFF79AFC0120FFF7B8
:10081C0097FC724B1B681946002000F03FFD744B8F
:10082C001B681946012000F039FD6E4B1B68012135
:10083C001846FFF75DFF4FF47A7000F013FD32207D
:10084C0000F0F4FC002000F09BFB0346002B00F0B2
:10085C00BD81FFF7A9FC604B0F221A605F4B1B6830
:10086C005F4A82FB03129211DB17D31A5D4A1360A5
:10087C005C4B1B6802211846FFF73AFF052100204C
:10088C00FFF7F0FC05210120FFF7ECFC4FF4FA71A7
:10089C00002000F003FD4FF4FA71012000F0FEFC83
:1008AC0094E105210020FFF7DDFC534B1B68002B66
:1008BC0004D107210120FFF7D5FC07E04E4B1B6844
:1008CC00012B03D106210120FFF7CCFC4B4B5B68BD
:1008DC00012B0FD1484B01221A600120FFF730FC8D
:1008EC0006210120FFF7BEFC3F4B1B681946012077
:1008FC0000F0D4FC414B1B68012B2BD10020FFF7DF
:10090C001FFC3B4B1B681946002000F0C7FC324B08
:10091C0007221A600120FFF713FC304B1B681946A5
:10092C00012000F0BBFC344B00221A602B4B1B68DF
:10093C002B4A82FB03129211DB17D31A294A13603C
:10094C002C4B1B6801211846FFF7D2FE4FF47A702E
:10095C0000F088FC2A4B1B68012B0ED1214B1B6825
:10096C00013B204A13601F4B1B6801211846FFF7FF
:10097C00BFFE4FF47A7000F075FC002000F000FB15
:10098C000346002B00F02481FFF70EFC124B0F22C4
:10099C001A60124B1B68124A82FB03129211DB176E
:1009AC00D31A104A13600F4B1B6802211846FFF72D
:1009BC009FFE05210020FFF755FC05210120FFF7C4
:1009CC0051FC4FF4FA71002000F068FC4FF4FA71FE
:1009DC00012000F063FCFBE000000020040000207C
:1009EC00D34D6210B000002008000020AC000020A5
:1009FC000C000020B4000020640000209C000020AB
:100A0C009400002006210020FFF72CFC744B1B687F
:100A1C00012B28D10020FFF793FB724B1B68194662
:100A2C00002000F03BFC704B05221A600120FFF700
:100A3C0087FB6E4B1B681946012000F02FFC6C4B9A
:100A4C001B686C4A82FB03129211DB17D31A6A4A99
:100A5C0013606A4B1B6801211846FFF749FE4FF4DF
:100A6C007A7000F0FFFB664B1B68012B0ED1624BBA
:100A7C001B68013B604A13605F4B1B6801211846E1
:100A8C00FFF736FE4FF47A7000F0ECFB002000F01C
:100A9C0077FA0346002B00F09D80FFF785FB524B45
:100AAC000F221A604F4B1B68524A82FB03129211A1
:100ABC00DB17D31A514A1360504B1B68022118469E
:100ACC00FFF716FE05210020FFF7CCFB05210120C6
:100ADC00FFF7C8FB4FF4FA71002000F0DFFB4FF476
:100AEC00FA71012000F0DAFB74E007210020FFF717
:100AFC00B9FB05210120FFF7B5FB394B1B68012B16
:100B0C001FD10020FFF71CFB394B1B681946002036
:100B1C0000F0C4FB344B06221A60344B1B68354A78
:100B2C0082FB03129211DB17D31A364A1360324B35
:100B3C001B6801211846FFF7DBFD4FF47A7000F0BB
:100B4C0091FB2F4B1B68012B0ED12E4B1B68013BCD
:100B5C002C4A13602B4B1B6801211846FFF7C8FD6C
:100B6C004FF47A7000F07EFB002000F009FA034687
:100B7C00002B31D0FFF718FB1B4B0F221A60194BBF
:100B8C001B681C4A82FB03129211DB17D31A1B4AF7
:100B9C0013601A4B1B6802211846FFF7A9FD0521AB
:100BAC000020FFF75FFB05210120FFF75BFB4FF4F3
:100BBC00FA71002000F072FB4FF4FA71012000F082
:100BCC006DFB09E000BF08E000BF06E000BF04E0D9
:100BDC0000BF02E000BF00E000BF00BF80BD00BF4F
:100BEC009C00002004000020000000200C000020CD
:100BFC0008000020D34D6210AC000020B000002093
:100C0C0094000020B400002080B500AF954B1B6809
:100C1C00112B00F0D180112B00F31A810F2B02D075
:100C2C00102B65D014E1904B1B68012B08D10521CA
:100C3C000020FFF7C5FA4FF4FA71002000F02EFBEC
:100C4C00894B5B68012B08D105210120FFF7B8FA0D
:100C5C004FF4FA71012000F021FB002000F090F914
:100C6C000346002B1CD0FFF79FFA7E4B10221A6014
:100C7C007E4B1B6803211846FFF73AFD0621002026
:100C8C00FFF7F0FA06210120FFF7ECFA4FF4FA71A6
:100C9C00002000F003FB4FF4FA71012000F0FEFA83
:100CAC00012000F06DF90346002B11D0704B1B682E
:100CBC0001336F4A13606E4B1B68632B02DD6C4B68
:100CCC0001221A606A4B1B6802211846FFF710FDBF
:100CDC00022000F055F90346002B00F0BB80644B5A
:100CEC001B684FF47A7202FB03F3624A1360B1E0A3
:100CFC005D4B1B68012B08D106210020FFF760FA21
:100D0C004FF4FA71002000F0C9FA574B5B68012BC5
:100D1C0008D106210120FFF753FA4FF4FA71012094
:100D2C0000F0BCFA002000F02BF90346002B1CD07D
:100D3C00FFF73AFA4B4B11221A604F4B1B680421F8
:100D4C001846FFF7D5FC07210020FFF78BFA072187
:100D5C000120FFF787FA4FF4FA71002000F09EFA99
:100D6C004FF4FA71012000F099FA012000F008F913
:100D7C000346002B11D03D4B1B6801333B4A1360DB
:100D8C003A4B1B68632B02DD384B01221A60374B40
:100D9C001B6803211846FFF7ABFC022000F0F0F8AB
:100DAC000346002B58D0314B1B684FF47A7202FB70
:100DBC0003F3324A13604FE02B4B1B68012B08D115
:100DCC0007210020FFF7FCF94FF4FA71002000F026
:100DDC0065FA254B5B68012B08D107210120FFF731
:100DEC00EFF94FF4FA71012000F058FA002000F0EE
:100DFC00C7F80346002B04D0FFF7D6F9194B042291
:100E0C001A60012000F0BCF80346002B11D01A4BDD
:100E1C001B680133184A1360174B1B68632B02DDE8
:100E2C00154B01221A60144B1B6804211846FFF75E
:100E3C005FFC022000F0A4F80346002B0ED00E4BF2
:100E4C001B684FF47A7202FB03F30D4A136005E042
:100E5C0000BF04E000BF02E000BF00E000BF00BF25
:100E6C0080BD00BF000000209C000020AC000020D2
:100E7C00B000002004000020B40000200800002076
:100E8C000C00002090B583B000AF0023FB715FE035
:100E9C00FA79FB793249895C324AD154FA79FB7977
:100EAC003149895C2E4AD154FB79304A52F82320BF
:100EBC00FB792F4931F81330FC791946104600F0B4
:100ECC0039FE03461A46284B1A55FB79254AD25C43
:100EDC00FB792349CB5C9A4237D1FB79204AD25C0F
:100EEC00FB792149CB5C9A422FD1FB79214AD25C08
:100EFC00FB791D49CB5C9A4215D0FA79FB791A49DA
:100F0C00895C1C4AD154FB791A4AD35C002B1CD146
:100F1C00FB79194A012142F82310FB79174A642105
:100F2C0042F8231011E0FB79144A52F82320013ABD
:100F3C00124941F82320FB79104A52F82330002B38
:100F4C0003DCFB790B4A0121D154FB790133FB7192
:100F5C00FB79022B9CD900BF00BF0C37BD4690BD5E
:100F6C006C0000207000002068000020140000209D
:100F7C0020000020100000208000002074000020C1
:100F8C0080B483B000AF78607B68022B01DD002356
:100F9C000DE0094A7B6852F82330012B06D1064A32
:100FAC007B68002142F82310012300E0002318463F
:100FBC000C37BD4680BC70478000002080B582B0E5
:100FCC0000AF00F0CDFA00F025F800F0ABF800F01F
:100FDC005DF80E4801F02EFA00237B60FFF7C4FB8E
:100FEC00FFF712FE0A4B1B68012BF7D17B68042B11
:100FFC0001D100237B607B685A1C7A601846FFF78E
:10100C0017FA322000F012F9E8E700BFB800002010
:10101C008C00002080B590B000AF07F11803282297
:10102C000021184601F0BEFD3B1D00221A605A60DB
:10103C009A60DA601A610223BB610123BB62102340
:10104C00FB6200237B6307F11803184600F0BAFD1E
:10105C000346002B01D000F0E3F80F237B60002344
:10106C00BB600023FB6000233B6100237B613B1DC5
:10107C000021184601F026F80346002B01D000F0A1
:10108C00CFF800BF4037BD4680BD000080B586B0AC
:10109C0000AF07F1080300221A605A609A60DA6008
:1010AC003B4600221A605A601D4B4FF080421A607A
:1010BC001B4B41F63F725A60194B00229A60184B39
:1010CC000922DA60164B00221A61154B00229A6134
:1010DC00134801F05FF90346002B01D000F0A0F893
:1010EC004FF48053BB6007F1080319460C4801F01C
:1010FC00F5FA0346002B01D000F092F800233B6078
:10110C0000237B603B461946054801F0BDFC0346B5
:10111C00002B01D000F084F800BF1837BD4680BD0D
:10112C00B800002080B588B000AF07F11003002292
:10113C001A605A609A60DA60354B9B69344A43F006
:10114C0010039361324B9B6903F01003FB60FB6847
:10115C002F4B9B692E4A43F0040393612C4B9B69E4
:10116C0003F00403BB60BB68294B9B69284A43F01E
:10117C0008039361264B9B6903F008037B607B6833
:10118C00002247F6F071234800F0EBFC002243F6F6
:10119C00FF71214800F0E5FC4FF400533B61002344
:1011AC007B610123BB6107F1100319461B4800F05A
:1011BC0047FB0A233B6100237B610123BB6107F1E1
:1011CC0010031946134800F03BFB47F6F0733B61E4
:1011DC0001237B610023BB610223FB6107F1100338
:1011EC0019460C4800F02CFB43F6FF733B610123BE
:1011FC007B610023BB610223FB6107F110031946DD
:10120C00054800F01DFB00BF2037BD4680BD00BF68
:10121C000010024000080140000C01400010014089
:10122C0080B400AF72B600BFFEE7000080B483B09C
:10123C0000AF78607B68084A82FB03129210DB17C0
:10124C00D31A064A1360064B00221A6000BF0C37F3
:10125C00BD4680BC704700BF676666669000002084
:10126C008C00002080B483B000AF78607B68084AA3
:10127C0082FB03129210DB17D31A064A1360064B3B
:10128C0000221A6000BF0C37BD4680BC704700BFFF
:10129C0067666666980000209400002080B483B0D6
:1012AC0000AF786039603B68094A82FB03129210E8
:1012BC00DB17D21A07497B6841F82320064A7B6862
:1012CC00002142F8231000BF0C37BD4680BC70478C
:1012DC0067666666A40000209C00002080B483B082
:1012EC0000AF00237B601CE0124A7B6852F823306D
:1012FC00002B13DD0F4A7B6852F823305A1E0D4920
:10130C007B6841F823200B4A7B6852F82330002B72
:10131C0004DC094A7B68012142F823107B68013305
:10132C007B607B68012BDFDD00BF00BF0C37BD4647
:10133C0080BC7047A40000209C00002080B400AF4B
:10134C00094B1B68002B0BDD074B1B68013B064A46
:10135C001360054B1B68002B02DC044B01221A6046
:10136C0000BFBD4680BC7047980000209400002050
:10137C0080B400AF094B1B68002B0BDD074B1B68BF
:10138C00013B064A1360054B1B68002B02DC044B27
:10139C0001221A6000BFBD4680BC7047900000203F
:1013AC008C00002080B582B000AF78607B681B6831
:1013BC00B3F1804F17D1FFF791FFFFF7D9FFFFF77C
:1013CC00BDFFFFF75FFD0A4B1B68013B084A13602A
:1013DC00074B1B68002B06DC054B64221A6010219E
:1013EC00044800F0D6FB00BF0837BD4680BD00BFE7
:1013FC00280000200008014080B485B000AF154BD8
:10140C009B69144A43F001039361124B9B6903F0EF
:10141C000103BB60BB680F4BDB690E4A43F0805382
:10142C00D3610C4BDB6903F080537B607B680A4B08
:10143C005B68FB60FB6823F0E063FB60FB6843F0D8
:10144C008063FB60044AFB68536000BF1437BD46E1
:10145C0080BC7047001002400000014080B584B091
:10146C0000AF78607B681B68B3F1804F13D10C4BD5
:10147C00DB690B4A43F00103D361094BDB6903F0D1
:10148C000103FB60FB68002200211C2000F0A1F985
:10149C001C2000F0BAF900BF1037BD4680BD00BF5C
:1014AC000010024080B400AFFEE780B400AFFEE74E
:1014BC0080B400AFFEE780B400AFFEE780B400AFAD
:1014CC00FEE780B400AF00BFBD4680BC704780B45F
:1014DC0000AF00BFBD4680BC704780B400AF00BFFA
:1014EC00BD4680BC704780B500AF00F07FF800BFF0
:1014FC0080BD000080B500AF024800F0E7FF00BFE0
:10150C0080BD00BFB800002080B400AF00BFBD4656
:10151C0080BC70470C480D490D4A002302E0D4589A
:10152C00C4500433C4188C42F9D30A4A0A4C002321
:10153C0001E013600432A242FBD3FFF7E5FF01F098
:10154C000DFBFFF73BFD704700000020380000202A
:10155C00002C00083800002004010020FEE70000E9
:10156C0080B500AF084B1B68074A43F010031360AB
:10157C00032000F023F90F2000F008F8FFF73CFFE0
:10158C000023184680BD00BF0020024080B582B009
:10159C0000AF7860124B1A68124B1B7819464FF447
:1015AC007A73B3FBF1F3B2FBF3F3184600F03BF99B
:1015BC000346002B01D001230EE07B680F2B0AD8C9
:1015CC00002279684FF0FF3000F003F9064A7B687F
:1015DC001360002300E0012318460837BD4680BD88
:1015EC002C000020340000203000002080B400AF1C
:1015FC00054B1B781A46054B1B681344034A1360B2
:10160C0000BFBD4680BC70473400002000010020A4
:10161C0080B400AF024B1B681846BD4680BC7047B7
:10162C000001002080B485B000AF78607B6803F0C7
:10163C000703FB600C4BDB68BB60BA684FF6FF031B
:10164C001340BB60FB681A02BB68134343F0BF63D3
:10165C0043F40033BB60044ABB68D36000BF14374B
:10166C00BD4680BC704700BF00ED00E080B400AF09
:10167C00044BDB681B0A03F007031846BD4680BC0D
:10168C00704700BF00ED00E080B483B000AF0346AC
:10169C00FB7197F90730002B0BDBFB7903F01F0272
:1016AC00064997F907305B09012000FA02F241F86C
:1016BC00232000BF0C37BD4680BC704700E100E022
:1016CC0080B483B000AF03463960FB7197F90730E3
:1016DC00002B0ADB3B68DAB20C4997F90730120190
:1016EC00D2B20B4483F800230AE03B68DAB2084913
:1016FC00FB7903F00F03043B1201D2B20B441A76B0
:10170C0000BF0C37BD4680BC704700BF00E100E055
:10171C0000ED00E080B489B000AFF860B9607A6089
:10172C00FB6803F00703FB61FB69C3F10703042BA0
:10173C0028BF0423BB61FB690433062B02D9FB6968
:10174C00033B00E000237B614FF0FF32BB6902FAE0
:10175C0003F3DA43BB681A407B699A404FF0FF31C0
:10176C007B6901FA03F3D9437B680B40134318469A
:10177C002437BD4680BC704780B582B000AF78601E
:10178C007B68013BB3F1807F01D301230FE00A4A50
:10179C007B68013B53600F214FF0FF30FFF790FF48
:1017AC00054B00229A60044B07221A60002318464E
:1017BC000837BD4680BD00BF10E000E080B582B0A8
:1017CC0000AF78607868FFF72DFF00BF0837BD4683
:1017DC0080BD80B586B000AF0346B9607A60FB73FC
:1017EC0000237B61FFF742FF78617A68B9687869FA
:1017FC00FFF790FF024697F90F3011461846FFF796
:10180C005FFF00BF1837BD4680BD80B582B000AF0A
:10181C000346FB7197F907301846FFF735FF00BFF9
:10182C000837BD4680BD80B582B000AF786078685F
:10183C00FFF7A2FF034618460837BD4680BD0000DF
:10184C0080B48BB000AF7860396000237B620023DA
:10185C003B6248E101227B6A02FA03F3FB613B68BD
:10186C001B68FA691340BB61BA69FB699A4240F084
:10187C0037813B685B68A34A93425ED0A14A93428E
:10188C0075D8A14A934258D09F4A93426FD89F4A29
:10189C00934252D09D4A934269D89D4A93424CD070
:1018AC009B4A934263D89B4A934246D0994A9342AF
:1018BC005DD8122B2AD8122B59D801A252F823F03A
:1018CC004719000821190008331900087519000878
:1018DC007B1900087B1900087B1900087B1900088C
:1018EC007B1900087B1900087B1900087B1900087C
:1018FC007B1900087B1900087B1900087B1900086C
:10190C007B190008291900083D190008824A9342E6
:10191C0013D02CE03B68DB683B6229E03B68DB685A
:10192C0004333B6224E03B68DB6808333B621FE016
:10193C003B68DB680C333B621AE03B689B68002B0E
:10194C0002D104233B6213E03B689B68012B05D159
:10195C0008233B627B68FA691A6109E008233B6241
:10196C007B68FA695A6103E000233B6200E000BF28
:10197C00BB69FF2B01D87B6801E07B6804337B617A
:10198C00BB69FF2B02D87B6A9B0002E07B6A083B99
:10199C009B003B617B691A680F213B6901FA03F3D9
:1019AC00DB431A40396A3B6901FA03F31A437B693A
:1019BC001A603B685B6803F08053002B00F090804A
:1019CC00564B9B69554A43F001039361534B9B69FA
:1019DC0003F00103BB60BB68514A7B6A9B0802336E
:1019EC0052F82330FB607B6A03F003039B000F2249
:1019FC0002FA03F3DB43FA681340FB607B68494A45
:101A0C0093420DD07B68484A934207D07B68474A83
:101A1C00934201D1022304E0032302E0012300E0FE
:101A2C0000237A6A02F0030292009340FA6813438F
:101A3C00FB603B497B6A9B080233FA6841F8232020
:101A4C003B685B6803F48033002B06D0384B1A6874
:101A5C003749BB6913430B6006E0354B1A68BB6909
:101A6C00DB43334913400B603B685B6803F4003382
:101A7C00002B06D02E4B5A682D49BB6913434B6083
:101A8C0006E02B4B5A68BB69DB43294913404B607A
:101A9C003B685B6803F48013002B06D0244B9A68D8
:101AAC002349BB6913438B6006E0214B9A68BB69E1
:101ABC00DB431F4913408B603B685B6803F40013E6
:101ACC00002B06D01A4BDA681949BB691343CB605B
:101ADC0006E0174BDA68BB69DB4315491340CB6052
:101AEC007B6A01337B623B681A687B6A22FA03F3D8
:101AFC00002B7FF4AFAE00BF00BF2C37BD4680BCBF
:101B0C00704700BF0000321000003110000022109E
:101B1C0000002110000012100000111000100240F3
:101B2C000000014000080140000C01400010014081
:101B3C000004014080B485B000AF78600B467B8018
:101B4C007B689A687B881340002B02D00123FB73BF
:101B5C0001E00023FB73FB7B18461437BD4680BCA9
:101B6C00704780B483B000AF78600B467B8013461F
:101B7C007B707B78002B03D07A887B681A6103E03A
:101B8C007B881A047B681A6100BF0C37BD4680BC89
:101B9C00704780B485B000AF78600B467B807B6863
:101BAC00DB68FB607A88FB6813401A04FB68D94336
:101BBC007B880B401A437B681A6100BF1437BD4603
:101BCC0080BC704780B586B000AF78607B68002B16
:101BDC0001D101236CE27B681B6803F00103002B2D
:101BEC0000F08780924B5B6803F00C03042B0CD045
:101BFC008F4B5B6803F00C03082B12D18C4B5B688A
:101C0C0003F48033B3F5803F0BD1894B1B6803F48D
:101C1C000033002B6CD07B685B68002B68D10123F0
:101C2C0046E27B685B68B3F5803F06D1804B1B684E
:101C3C007F4A43F4803313602EE07B685B68002B93
:101C4C000CD17B4B1B687A4A23F480331360784B9E
:101C5C001B68774A23F4802313601DE07B685B6864
:101C6C00B3F5A02F0CD1724B1B68714A43F480233F
:101C7C0013606F4B1B686E4A43F4803313600BE0A8
:101C8C006B4B1B686A4A23F480331360684B1B68E8
:101C9C00674A23F4802313607B685B68002B13D0A6
:101CAC00FFF7B6FC386108E0FFF7B2FC02463B696F
:101CBC00D31A642B01D90323FAE15D4B1B6803F49F
:101CCC000033002BF0D014E0FFF7A2FC386108E0E1
:101CDC00FFF79EFC02463B69D31A642B01D9032300
:101CEC00E6E1534B1B6803F40033002BF0D100E00A
:101CFC0000BF7B681B6803F00203002B63D04C4BC6
:101D0C005B6803F00C03002B0BD0494B5B6803F0B2
:101D1C000C03082B1CD1464B5B6803F48033002B5F
:101D2C0016D1434B1B6803F00203002B05D07B68D4
:101D3C001B69012B01D00123BAE13D4B1B6823F039
:101D4C00F8027B685B69DB00394913430B603AE0AE
:101D5C007B681B69002B20D0364B01221A60FFF7E1
:101D6C0057FC386108E0FFF753FC02463B69D31A75
:101D7C00022B01D903239BE12D4B1B6803F00203BB
:101D8C00002BF0D02A4B1B6823F0F8027B685B69B0
:101D9C00DB00274913430B6015E0264B00221A6029
:101DAC00FFF736FC386108E0FFF732FC02463B696E
:101DBC00D31A022B01D903237AE11D4B1B6803F0C4
:101DCC000203002BF0D17B681B6803F00803002B87
:101DDC003AD07B689B69002B19D0174B01221A60F3
:101DEC00FFF716FC386108E0FFF712FC02463B696E
:101DFC00D31A022B01D903235AE10D4B5B6A03F072
:101E0C000203002BF0D0012000F0A6FA1CE00A4BD4
:101E1C0000221A60FFF7FCFB38610FE0FFF7F8FBBC
:101E2C0002463B69D31A022B08D9032340E100BFB9
:101E3C000010024000004242800442429E4B5B6A0A
:101E4C0003F00203002BE9D17B681B6803F0040349
:101E5C00002B00F0A6800023FB75974BDB6903F089
:101E6C008053002B0DD1944BDB69934A43F0805384
:101E7C00D361914BDB6903F08053BB60BB680123DA
:101E8C00FB758E4B1B6803F48073002B18D18B4BA6
:101E9C001B688A4A43F480731360FFF7B9FB3861FF
:101EAC0008E0FFF7B5FB02463B69D31A642B01D956
:101EBC000323FDE0814B1B6803F48073002BF0D0EF
:101ECC007B68DB68012B06D17B4B1B6A7A4A43F09B
:101EDC00010313622DE07B68DB68002B0CD1764B81
:101EEC001B6A754A23F001031362734B1B6A724A17
:101EFC0023F0040313621CE07B68DB68052B0CD118
:101F0C006D4B1B6A6C4A43F0040313626A4B1B6AE9
:101F1C00694A43F0010313620BE0674B1B6A664A84
:101F2C0023F001031362644B1B6A634A23F004031E
:101F3C0013627B68DB68002B15D0FFF769FB3861F7
:101F4C000AE0FFF765FB02463B69D31A41F288327F
:101F5C00934201D90323ABE0574B1B6A03F00203F6
:101F6C00002BEED014E0FFF753FB38610AE0FFF7CB
:101F7C004FFB02463B69D31A41F28832934201D996
:101F8C00032395E04C4B1B6A03F00203002BEED1AC
:101F9C00FB7D012B05D1484BDB69474A23F080536D
:101FAC00D3617B68DB69002B00F08180424B5B685E
:101FBC0003F00C03082B61D07B68DB69022B46D144
:101FCC003F4B00221A60FFF723FB386108E0FFF754
:101FDC001FFB02463B69D31A022B01D9032367E08E
:101FEC00354B1B6803F00073002BF0D17B681B6A28
:101FFC00B3F5803F08D1304B5B6823F400327B682B
:10200C009B682D4913434B602B4B5B6823F4741274
:10201C007B68196A7B685B6A0B43274913434B60E7
:10202C00274B01221A60FFF7F3FA386108E0FFF73B
:10203C00EFFA02463B69D31A022B01D9032337E08E
:10204C001D4B1B6803F00073002BF0D02FE01C4BD2
:10205C0000221A60FFF7DCFA386108E0FFF7D8FAC3
:10206C0002463B69D31A022B01D9032320E0124B01
:10207C001B6803F00073002BF0D118E07B68DB6960
:10208C00012B01D1012313E00B4B5B68FB60FB6858
:10209C0003F480327B681B6A9A4206D1FB6803F416
:1020AC0070127B685B6A9A4201D0012300E0002326
:1020BC0018461837BD4680BD001002400070004025
:1020CC006000424280B584B000AF786039607B68B4
:1020DC00002B01D10123D0E06A4B1B6803F00703EE
:1020EC003A689A4210D9674B1B6823F0070265497E
:1020FC003B6813430B60634B1B6803F007033A68A0
:10210C009A4201D00123B8E07B681B6803F00203FC
:10211C00002B20D07B681B6803F00403002B05D038
:10212C00594B5B68584A43F4E06353607B681B6807
:10213C0003F00803002B05D0534B5B68524A43F461
:10214C0060535360504B5B6823F0F0027B689B68D4
:10215C004D4913434B607B681B6803F00103002B54
:10216C0040D07B685B68012B07D1474B1B6803F49D
:10217C000033002B15D101237FE07B685B68022BB9
:10218C0007D1414B1B6803F00073002B09D10123CD
:10219C0073E03D4B1B6803F00203002B01D10123BC
:1021AC006BE0394B5B6823F003027B685B68364954
:1021BC0013434B60FFF72CFAF8600AE0FFF728FA9C
:1021CC000246FB68D31A41F28832934201D90323A9
:1021DC0053E02D4B5B6803F00C027B685B689B0043
:1021EC009A42EBD1274B1B6803F007033A689A42DB
:1021FC0010D2244B1B6823F0070222493B6813437F
:10220C000B60204B1B6803F007033A689A4201D01D
:10221C00012332E07B681B6803F00403002B08D019
:10222C00194B5B6823F4E0627B68DB681649134347
:10223C004B607B681B6803F00803002B09D0124B22
:10224C005B6823F460527B681B69DB000E49134307
:10225C004B6000F021F802460B4B5B681B0903F046
:10226C000F030A49CB5C22FA03F3094A1360094BAA
:10227C001B681846FFF78AF9002318461037BD462D
:10228C0080BD00BF0020024000100240E82B000877
:10229C002C0000203000002090B48AB000AF2A4BF4
:1022AC003C1D0FCB84E80F0040F201233B80002340
:1022BC00FB610023BB6100237B6200237B61002355
:1022CC003B62224B5B68FB61FB6903F00C03042B44
:1022DC0002D0082B03D02DE01D4B3B622DE0FB6997
:1022EC009B0C03F00F0307F12802134413F8243C52
:1022FC007B61FB6903F48033002B13D0134B5B68B9
:10230C005B0C03F0010307F12802134413F8283C7B
:10231C00BB617B690E4A02FB03F2BB69B2FBF3F3B0
:10232C007B6204E07B690B4A02FB03F37B627B6AF2
:10233C003B6202E0064B3B6200BF3B6A1846283703
:10234C00BD4690BC704700BFD82B0008001002405F
:10235C0000127A0000093D0080B485B000AF7860AF
:10236C000A4B1B680A4AA2FB03235B0A7A6802FB2E
:10237C0003F3FB6000BFFB685A1EFA60002BF9D117
:10238C0000BF00BF1437BD4680BC70472C00002036
:10239C00D34D621080B582B000AF78607B68002BA3
:1023AC0001D1012341E07B6893F83D30DBB2002B77
:1023BC0006D17B68002283F83C207868FFF74EF842
:1023CC007B68022283F83D207B681A687B680433A3
:1023DC001946104600F06AFA7B68012283F8462001
:1023EC007B68012283F83E207B68012283F83F2022
:1023FC007B68012283F840207B68012283F841200E
:10240C007B68012283F842207B68012283F84320F9
:10241C007B68012283F844207B68012283F84520E5
:10242C007B68012283F83D20002318460837BD46FF
:10243C0080BD000080B485B000AF78607B6893F8F5
:10244C003D30DBB2012B01D0012335E07B68022249
:10245C0083F83D207B681B68DA687B681B6842F058
:10246C000102DA607B681B68164A934209D07B68CC
:10247C001B68B3F1804F04D07B681B68124A9342EF
:10248C0011D17B681B689B6803F00703FB60FB683A
:10249C00062B10D07B681B681A687B681B6842F09F
:1024AC0001021A6007E07B681B681A687B681B686E
:1024BC0042F001021A60002318461437BD4680BC56
:1024CC00704700BF002C01400004004080B582B072
:1024DC0000AF78607B681B681B6903F00203022B5A
:1024EC0022D17B681B68DB6803F00203022B1BD133
:1024FC007B681B686FF002021A617B6801221A77F5
:10250C007B681B689B6903F00303002B03D078687E
:10251C0000F0B1F905E0786800F0A4F9786800F0F3
:10252C00B3F97B6800221A777B681B681B6903F080
:10253C000403042B22D17B681B68DB6803F00403C3
:10254C00042B1BD17B681B686FF004021A617B683B
:10255C0002221A777B681B689B6903F44073002B7B
:10256C0003D0786800F087F905E0786800F07AF914
:10257C00786800F089F97B6800221A777B681B6801
:10258C001B6903F00803082B22D17B681B68DB68EE
:10259C0003F00803082B1BD17B681B686FF0080243
:1025AC001A617B6804221A777B681B68DB6903F06D
:1025BC000303002B03D0786800F05DF905E0786820
:1025CC0000F050F9786800F05FF97B6800221A7708
:1025DC007B681B681B6903F01003102B22D17B68EE
:1025EC001B68DB6803F01003102B1BD17B681B6886
:1025FC006FF010021A617B6808221A777B681B68DF
:10260C00DB6903F44073002B03D0786800F033F9D6
:10261C0005E0786800F026F9786800F035F97B68F9
:10262C0000221A777B681B681B6903F00103012BDE
:10263C000ED17B681B68DB6803F00103012B07D10B
:10264C007B681B686FF001021A617868FEF7AAFEBE
:10265C007B681B681B6903F08003802B0ED17B68A1
:10266C001B68DB6803F08003802B07D17B681B6839
:10267C006FF080021A61786800F067FA7B681B685B
:10268C001B6903F04003402B0ED17B681B68DB6891
:10269C0003F04003402B07D17B681B686FF04002AE
:1026AC001A61786800F0F9F87B681B681B6903F005
:1026BC002003202B0ED17B681B68DB6803F0200302
:1026CC00202B07D17B681B686FF020021A61786899
:1026DC0000F032FA00BF0837BD4680BD80B584B02B
:1026EC0000AF786039607B6893F83C30012B01D1E6
:1026FC000223B3E07B68012283F83C207B68022232
:10270C0083F83D207B681B689B68FB60FB6823F0AB
:10271C007703FB60FB6823F47F43FB607B681B68DB
:10272C00FA689A603B681B68B3F5005F3ED0B3F55E
:10273C00005F00F28780B3F5805F00F08580B3F511
:10274C00805F7FD8702B1AD0702B7BD8602B50D029
:10275C00602B77D8502B3CD0502B73D8402B58D0B3
:10276C00402B6FD8302B64D0302B6BD8202B60D003
:10277C00202B67D8002B5CD0102B5AD062E07B68E2
:10278C0018683B6899683B685A683B68DB6800F0DE
:10279C005CF97B681B689B68FB60FB6843F0770304
:1027AC00FB607B681B68FA689A604EE07B6818686F
:1027BC003B6899683B685A683B68DB6800F045F9F0
:1027CC007B681B689A687B681B6842F480429A603D
:1027DC003BE07B6818683B6859683B68DB681A46C5
:1027EC0000F0BCF87B681B685021184600F013F908
:1027FC002BE07B6818683B6859683B68DB681A46B5
:10280C0000F0DAF87B681B686021184600F003F9C9
:10281C001BE07B6818683B6859683B68DB681A46A4
:10282C0000F09CF87B681B684021184600F0F3F818
:10283C000BE07B681A683B681B681946104600F071
:10284C00EAF802E000BF00E000BF7B68012283F8D9
:10285C003D207B68002283F83C200023184610376B
:10286C00BD4680BD80B483B000AF786000BF0C372C
:10287C00BD4680BC704780B483B000AF786000BFA9
:10288C000C37BD4680BC704780B483B000AF786015
:10289C0000BF0C37BD4680BC704780B483B000AF1E
:1028AC00786000BF0C37BD4680BC704780B485B0E3
:1028BC0000AF786039607B681B68FB607B68254AD9
:1028CC00934207D07B68B3F1804F03D07B68224AD8
:1028DC00934208D1FB6823F07003FB603B685B6894
:1028EC00FA681343FB607B681A4A934207D07B68F3
:1028FC00B3F1804F03D07B68174A934208D1FB6831
:10290C0023F44073FB603B68DB68FA681343FB609D
:10291C00FB6823F080023B685B691343FB607B68B8
:10292C00FA681A603B689A687B68DA623B681A68D6
:10293C007B689A627B68074A934203D13B681A69A9
:10294C007B681A637B6801225A6100BF1437BD464D
:10295C0080BC7047002C01400004004080B487B05C
:10296C0000AFF860B9607A60FB681B6A7B61FB683A
:10297C001B6A23F00102FB681A62FB689B693B61CE
:10298C003B6923F0F0033B617B681B013A691343FD
:10299C003B617B6923F00A037B617A69BB68134353
:1029AC007B61FB683A699A61FB687A691A6200BFBD
:1029BC001C37BD4680BC704780B487B000AFF86050
:1029CC00B9607A60FB681B6A23F01002FB681A621C
:1029DC00FB689B697B61FB681B6A3B617B6923F429
:1029EC0070437B617B681B037A6913437B613B6992
:1029FC0023F0A0033B61BB681B013A6913433B61A5
:102A0C00FB687A699A61FB683A691A6200BF1C37E5
:102A1C00BD4680BC704780B485B000AF786039602B
:102A2C007B689B68FB60FB6823F07003FB603A6873
:102A3C00FB68134343F00703FB607B68FA689A60FA
:102A4C0000BF1437BD4680BC704780B487B000AF60
:102A5C00F860B9607A603B60FB689B687B617B695E
:102A6C0023F47F437B613B681A027B681A43BB6883
:102A7C0013437A6913437B61FB687A699A6000BFE0
:102A8C001C37BD4680BC704780B485B000AF786001
:102A9C0039607B6893F83C30012B01D1022341E073
:102AAC007B68012283F83C207B68022283F83D205E
:102ABC007B681B685B68FB607B681B689B68BB6002
:102ACC00FB6823F07003FB603B681B68FA681343D8
:102ADC00FB607B681B68FA685A607B681B68144A49
:102AEC00934209D07B681B68B3F1804F04D07B689C
:102AFC001B68104A93420CD1BB6823F08003BB6067
:102B0C003B685B68BA681343BB607B681B68BA6838
:102B1C009A607B68012283F83D207B68002283F851
:102B2C003C20002318461437BD4680BC704700BFBC
:102B3C00002C01400004004080B483B000AF7860EA
:102B4C0000BF0C37BD4680BC704780B483B000AF6B
:102B5C00786000BF0C37BD4680BC704770B500264E
:102B6C000C4D0D4C641BA410A64209D100F022F8A8
:102B7C0000260A4D0A4C641BA410A64205D170BD58
:102B8C0055F8043B98470136EEE755F8043B984757
:102B9C000136F2E7F82B0008F82B0008F82B000898
:102BAC00FC2B000803460244934200D1704703F803
:102BBC00011BF9E7F8B500BFF8BC08BC9E4670478E
:0C2BCC00F8B500BFF8BC08BC9E4670477E
:102BD80002030405060708090A0B0C0D0E0F101056
:102BE80000000000000000000102030406070809B5
:042BF800310100089F
:042BFC000D010008BF
:102C00000300000088130000D0070000B80B00008C
:102C100001000000001001400008014000080140D0
:102C20000020020008000000640000000024F400FE
:082C300010000000010000008B
:0400000508001521B9
:00000001FF
